{
  "contractName": "CryptoChickens",
  "abi": [
    {
      "inputs": [],
      "payable": false,
      "stateMutability": "nonpayable",
      "type": "constructor"
    },
    {
      "anonymous": false,
      "inputs": [
        {
          "indexed": true,
          "internalType": "address",
          "name": "owner",
          "type": "address"
        },
        {
          "indexed": true,
          "internalType": "address",
          "name": "approved",
          "type": "address"
        },
        {
          "indexed": true,
          "internalType": "uint256",
          "name": "tokenId",
          "type": "uint256"
        }
      ],
      "name": "Approval",
      "type": "event"
    },
    {
      "anonymous": false,
      "inputs": [
        {
          "indexed": true,
          "internalType": "address",
          "name": "owner",
          "type": "address"
        },
        {
          "indexed": true,
          "internalType": "address",
          "name": "operator",
          "type": "address"
        },
        {
          "indexed": false,
          "internalType": "bool",
          "name": "approved",
          "type": "bool"
        }
      ],
      "name": "ApprovalForAll",
      "type": "event"
    },
    {
      "anonymous": false,
      "inputs": [
        {
          "indexed": true,
          "internalType": "uint256",
          "name": "id",
          "type": "uint256"
        }
      ],
      "name": "CreateCommonChicken",
      "type": "event"
    },
    {
      "anonymous": false,
      "inputs": [
        {
          "indexed": true,
          "internalType": "uint256",
          "name": "id",
          "type": "uint256"
        }
      ],
      "name": "CreateMemeChicken",
      "type": "event"
    },
    {
      "anonymous": false,
      "inputs": [
        {
          "indexed": true,
          "internalType": "uint256",
          "name": "id",
          "type": "uint256"
        }
      ],
      "name": "CreateRareChicken",
      "type": "event"
    },
    {
      "anonymous": false,
      "inputs": [
        {
          "indexed": true,
          "internalType": "address",
          "name": "previousOwner",
          "type": "address"
        },
        {
          "indexed": true,
          "internalType": "address",
          "name": "newOwner",
          "type": "address"
        }
      ],
      "name": "OwnershipTransferred",
      "type": "event"
    },
    {
      "anonymous": false,
      "inputs": [
        {
          "indexed": true,
          "internalType": "address",
          "name": "from",
          "type": "address"
        },
        {
          "indexed": true,
          "internalType": "address",
          "name": "to",
          "type": "address"
        },
        {
          "indexed": true,
          "internalType": "uint256",
          "name": "tokenId",
          "type": "uint256"
        }
      ],
      "name": "Transfer",
      "type": "event"
    },
    {
      "constant": true,
      "inputs": [],
      "name": "BREEDERFEE",
      "outputs": [
        {
          "internalType": "uint256",
          "name": "",
          "type": "uint256"
        }
      ],
      "payable": false,
      "stateMutability": "view",
      "type": "function"
    },
    {
      "constant": true,
      "inputs": [],
      "name": "COMMONPACK",
      "outputs": [
        {
          "internalType": "uint256",
          "name": "",
          "type": "uint256"
        }
      ],
      "payable": false,
      "stateMutability": "view",
      "type": "function"
    },
    {
      "constant": true,
      "inputs": [],
      "name": "COMMONPRICE",
      "outputs": [
        {
          "internalType": "uint256",
          "name": "",
          "type": "uint256"
        }
      ],
      "payable": false,
      "stateMutability": "view",
      "type": "function"
    },
    {
      "constant": true,
      "inputs": [],
      "name": "MAX_COMMONPACK",
      "outputs": [
        {
          "internalType": "uint256",
          "name": "",
          "type": "uint256"
        }
      ],
      "payable": false,
      "stateMutability": "view",
      "type": "function"
    },
    {
      "constant": true,
      "inputs": [],
      "name": "MAX_MEMEBREED",
      "outputs": [
        {
          "internalType": "uint256",
          "name": "",
          "type": "uint256"
        }
      ],
      "payable": false,
      "stateMutability": "view",
      "type": "function"
    },
    {
      "constant": true,
      "inputs": [],
      "name": "MAX_MEMEPACK",
      "outputs": [
        {
          "internalType": "uint256",
          "name": "",
          "type": "uint256"
        }
      ],
      "payable": false,
      "stateMutability": "view",
      "type": "function"
    },
    {
      "constant": true,
      "inputs": [],
      "name": "MAX_RAREPACK",
      "outputs": [
        {
          "internalType": "uint256",
          "name": "",
          "type": "uint256"
        }
      ],
      "payable": false,
      "stateMutability": "view",
      "type": "function"
    },
    {
      "constant": true,
      "inputs": [],
      "name": "MEMEBREED",
      "outputs": [
        {
          "internalType": "uint256",
          "name": "",
          "type": "uint256"
        }
      ],
      "payable": false,
      "stateMutability": "view",
      "type": "function"
    },
    {
      "constant": true,
      "inputs": [],
      "name": "MEMEPACK",
      "outputs": [
        {
          "internalType": "uint256",
          "name": "",
          "type": "uint256"
        }
      ],
      "payable": false,
      "stateMutability": "view",
      "type": "function"
    },
    {
      "constant": true,
      "inputs": [],
      "name": "MEMEPRICE",
      "outputs": [
        {
          "internalType": "uint256",
          "name": "",
          "type": "uint256"
        }
      ],
      "payable": false,
      "stateMutability": "view",
      "type": "function"
    },
    {
      "constant": true,
      "inputs": [],
      "name": "RAREPACK",
      "outputs": [
        {
          "internalType": "uint256",
          "name": "",
          "type": "uint256"
        }
      ],
      "payable": false,
      "stateMutability": "view",
      "type": "function"
    },
    {
      "constant": true,
      "inputs": [],
      "name": "RAREPRICE",
      "outputs": [
        {
          "internalType": "uint256",
          "name": "",
          "type": "uint256"
        }
      ],
      "payable": false,
      "stateMutability": "view",
      "type": "function"
    },
    {
      "constant": false,
      "inputs": [
        {
          "internalType": "address",
          "name": "to",
          "type": "address"
        },
        {
          "internalType": "uint256",
          "name": "tokenId",
          "type": "uint256"
        }
      ],
      "name": "approve",
      "outputs": [],
      "payable": false,
      "stateMutability": "nonpayable",
      "type": "function"
    },
    {
      "constant": true,
      "inputs": [
        {
          "internalType": "address",
          "name": "owner",
          "type": "address"
        }
      ],
      "name": "balanceOf",
      "outputs": [
        {
          "internalType": "uint256",
          "name": "",
          "type": "uint256"
        }
      ],
      "payable": false,
      "stateMutability": "view",
      "type": "function"
    },
    {
      "constant": true,
      "inputs": [],
      "name": "creatorAddress",
      "outputs": [
        {
          "internalType": "address payable",
          "name": "",
          "type": "address"
        }
      ],
      "payable": false,
      "stateMutability": "view",
      "type": "function"
    },
    {
      "constant": true,
      "inputs": [],
      "name": "donationAddress",
      "outputs": [
        {
          "internalType": "address payable",
          "name": "",
          "type": "address"
        }
      ],
      "payable": false,
      "stateMutability": "view",
      "type": "function"
    },
    {
      "constant": true,
      "inputs": [
        {
          "internalType": "uint256",
          "name": "tokenId",
          "type": "uint256"
        }
      ],
      "name": "getApproved",
      "outputs": [
        {
          "internalType": "address",
          "name": "",
          "type": "address"
        }
      ],
      "payable": false,
      "stateMutability": "view",
      "type": "function"
    },
    {
      "constant": true,
      "inputs": [
        {
          "internalType": "address",
          "name": "owner",
          "type": "address"
        },
        {
          "internalType": "address",
          "name": "operator",
          "type": "address"
        }
      ],
      "name": "isApprovedForAll",
      "outputs": [
        {
          "internalType": "bool",
          "name": "",
          "type": "bool"
        }
      ],
      "payable": false,
      "stateMutability": "view",
      "type": "function"
    },
    {
      "constant": true,
      "inputs": [],
      "name": "name",
      "outputs": [
        {
          "internalType": "string",
          "name": "",
          "type": "string"
        }
      ],
      "payable": false,
      "stateMutability": "view",
      "type": "function"
    },
    {
      "constant": true,
      "inputs": [],
      "name": "owner",
      "outputs": [
        {
          "internalType": "address",
          "name": "",
          "type": "address"
        }
      ],
      "payable": false,
      "stateMutability": "view",
      "type": "function"
    },
    {
      "constant": true,
      "inputs": [
        {
          "internalType": "uint256",
          "name": "tokenId",
          "type": "uint256"
        }
      ],
      "name": "ownerOf",
      "outputs": [
        {
          "internalType": "address",
          "name": "",
          "type": "address"
        }
      ],
      "payable": false,
      "stateMutability": "view",
      "type": "function"
    },
    {
      "constant": false,
      "inputs": [],
      "name": "renounceOwnership",
      "outputs": [],
      "payable": false,
      "stateMutability": "nonpayable",
      "type": "function"
    },
    {
      "constant": true,
      "inputs": [],
      "name": "reveal_timestamp",
      "outputs": [
        {
          "internalType": "uint256",
          "name": "",
          "type": "uint256"
        }
      ],
      "payable": false,
      "stateMutability": "view",
      "type": "function"
    },
    {
      "constant": false,
      "inputs": [
        {
          "internalType": "address",
          "name": "from",
          "type": "address"
        },
        {
          "internalType": "address",
          "name": "to",
          "type": "address"
        },
        {
          "internalType": "uint256",
          "name": "tokenId",
          "type": "uint256"
        }
      ],
      "name": "safeTransferFrom",
      "outputs": [],
      "payable": false,
      "stateMutability": "nonpayable",
      "type": "function"
    },
    {
      "constant": false,
      "inputs": [
        {
          "internalType": "address",
          "name": "from",
          "type": "address"
        },
        {
          "internalType": "address",
          "name": "to",
          "type": "address"
        },
        {
          "internalType": "uint256",
          "name": "tokenId",
          "type": "uint256"
        },
        {
          "internalType": "bytes",
          "name": "_data",
          "type": "bytes"
        }
      ],
      "name": "safeTransferFrom",
      "outputs": [],
      "payable": false,
      "stateMutability": "nonpayable",
      "type": "function"
    },
    {
      "constant": false,
      "inputs": [
        {
          "internalType": "address",
          "name": "to",
          "type": "address"
        },
        {
          "internalType": "bool",
          "name": "approved",
          "type": "bool"
        }
      ],
      "name": "setApprovalForAll",
      "outputs": [],
      "payable": false,
      "stateMutability": "nonpayable",
      "type": "function"
    },
    {
      "constant": true,
      "inputs": [
        {
          "internalType": "bytes4",
          "name": "interfaceId",
          "type": "bytes4"
        }
      ],
      "name": "supportsInterface",
      "outputs": [
        {
          "internalType": "bool",
          "name": "",
          "type": "bool"
        }
      ],
      "payable": false,
      "stateMutability": "view",
      "type": "function"
    },
    {
      "constant": true,
      "inputs": [],
      "name": "symbol",
      "outputs": [
        {
          "internalType": "string",
          "name": "",
          "type": "string"
        }
      ],
      "payable": false,
      "stateMutability": "view",
      "type": "function"
    },
    {
      "constant": true,
      "inputs": [
        {
          "internalType": "uint256",
          "name": "index",
          "type": "uint256"
        }
      ],
      "name": "tokenByIndex",
      "outputs": [
        {
          "internalType": "uint256",
          "name": "",
          "type": "uint256"
        }
      ],
      "payable": false,
      "stateMutability": "view",
      "type": "function"
    },
    {
      "constant": true,
      "inputs": [
        {
          "internalType": "address",
          "name": "owner",
          "type": "address"
        },
        {
          "internalType": "uint256",
          "name": "index",
          "type": "uint256"
        }
      ],
      "name": "tokenOfOwnerByIndex",
      "outputs": [
        {
          "internalType": "uint256",
          "name": "",
          "type": "uint256"
        }
      ],
      "payable": false,
      "stateMutability": "view",
      "type": "function"
    },
    {
      "constant": true,
      "inputs": [
        {
          "internalType": "uint256",
          "name": "tokenId",
          "type": "uint256"
        }
      ],
      "name": "tokenURI",
      "outputs": [
        {
          "internalType": "string",
          "name": "",
          "type": "string"
        }
      ],
      "payable": false,
      "stateMutability": "view",
      "type": "function"
    },
    {
      "constant": true,
      "inputs": [],
      "name": "totalSupply",
      "outputs": [
        {
          "internalType": "uint256",
          "name": "",
          "type": "uint256"
        }
      ],
      "payable": false,
      "stateMutability": "view",
      "type": "function"
    },
    {
      "constant": false,
      "inputs": [
        {
          "internalType": "address",
          "name": "from",
          "type": "address"
        },
        {
          "internalType": "address",
          "name": "to",
          "type": "address"
        },
        {
          "internalType": "uint256",
          "name": "tokenId",
          "type": "uint256"
        }
      ],
      "name": "transferFrom",
      "outputs": [],
      "payable": false,
      "stateMutability": "nonpayable",
      "type": "function"
    },
    {
      "constant": false,
      "inputs": [
        {
          "internalType": "address",
          "name": "newOwner",
          "type": "address"
        }
      ],
      "name": "transferOwnership",
      "outputs": [],
      "payable": false,
      "stateMutability": "nonpayable",
      "type": "function"
    },
    {
      "constant": true,
      "inputs": [],
      "name": "totalMint",
      "outputs": [
        {
          "internalType": "uint256",
          "name": "",
          "type": "uint256"
        }
      ],
      "payable": false,
      "stateMutability": "view",
      "type": "function"
    },
    {
      "constant": false,
      "inputs": [
        {
          "internalType": "address",
          "name": "_to",
          "type": "address"
        },
        {
          "internalType": "string",
          "name": "_tokenURI",
          "type": "string"
        }
      ],
      "name": "starterMint",
      "outputs": [],
      "payable": false,
      "stateMutability": "nonpayable",
      "type": "function"
    },
    {
      "constant": false,
      "inputs": [
        {
          "internalType": "address",
          "name": "_to",
          "type": "address"
        },
        {
          "internalType": "string",
          "name": "_tokenURI",
          "type": "string"
        }
      ],
      "name": "mintMemePack",
      "outputs": [],
      "payable": true,
      "stateMutability": "payable",
      "type": "function"
    },
    {
      "constant": false,
      "inputs": [
        {
          "internalType": "address",
          "name": "_to",
          "type": "address"
        },
        {
          "internalType": "string",
          "name": "_tokenURI",
          "type": "string"
        }
      ],
      "name": "mintMemeBreed",
      "outputs": [],
      "payable": true,
      "stateMutability": "payable",
      "type": "function"
    },
    {
      "constant": false,
      "inputs": [
        {
          "internalType": "address",
          "name": "_to",
          "type": "address"
        },
        {
          "internalType": "string",
          "name": "_tokenURI",
          "type": "string"
        }
      ],
      "name": "mintRarePack",
      "outputs": [],
      "payable": true,
      "stateMutability": "payable",
      "type": "function"
    },
    {
      "constant": false,
      "inputs": [
        {
          "internalType": "address",
          "name": "_to",
          "type": "address"
        },
        {
          "internalType": "string",
          "name": "_tokenURI",
          "type": "string"
        }
      ],
      "name": "mintRareBreed",
      "outputs": [],
      "payable": true,
      "stateMutability": "payable",
      "type": "function"
    },
    {
      "constant": false,
      "inputs": [
        {
          "internalType": "address",
          "name": "_to",
          "type": "address"
        },
        {
          "internalType": "string",
          "name": "_tokenURI",
          "type": "string"
        }
      ],
      "name": "mintCommonPack",
      "outputs": [],
      "payable": true,
      "stateMutability": "payable",
      "type": "function"
    },
    {
      "constant": false,
      "inputs": [
        {
          "internalType": "address",
          "name": "_to",
          "type": "address"
        },
        {
          "internalType": "string",
          "name": "_tokenURI",
          "type": "string"
        }
      ],
      "name": "generalBreed",
      "outputs": [],
      "payable": true,
      "stateMutability": "payable",
      "type": "function"
    },
    {
      "constant": false,
      "inputs": [],
      "name": "withdrawALL",
      "outputs": [],
      "payable": true,
      "stateMutability": "payable",
      "type": "function"
    }
  ],
  "bytecode": "0x60806040526000600d556000600e556000600f5560006010553480156200002557600080fd5b506040518060400160405280600e81526020017f43727970746f436869636b656e730000000000000000000000000000000000008152506040518060400160405280600681526020017f4d454d4f525900000000000000000000000000000000000000000000000000008152508181620000ac6301ffc9a760e01b6200015060201b60201c565b620000c46380ac58cd60e01b6200015060201b60201c565b620000dc63780e9d6360e01b6200015060201b60201c565b8160099080519060200190620000f492919062000327565b5080600a90805190602001906200010d92919062000327565b5062000126635b5e139f60e01b6200015060201b60201c565b505050506200014a6200013e6200025960201b60201c565b6200026160201b60201c565b620003d6565b63ffffffff60e01b817bffffffffffffffffffffffffffffffffffffffffffffffffffffffff19161415620001ed576040517f08c379a000000000000000000000000000000000000000000000000000000000815260040180806020018281038252601c8152602001807f4552433136353a20696e76616c696420696e746572666163652069640000000081525060200191505060405180910390fd5b6001600080837bffffffffffffffffffffffffffffffffffffffffffffffffffffffff19167bffffffffffffffffffffffffffffffffffffffffffffffffffffffff1916815260200190815260200160002060006101000a81548160ff02191690831515021790555050565b600033905090565b6000600c60009054906101000a900473ffffffffffffffffffffffffffffffffffffffff16905081600c60006101000a81548173ffffffffffffffffffffffffffffffffffffffff021916908373ffffffffffffffffffffffffffffffffffffffff1602179055508173ffffffffffffffffffffffffffffffffffffffff168173ffffffffffffffffffffffffffffffffffffffff167f8be0079c531659141344cd1fd0a4f28419497f9722a3daafe3b4186f6b6457e060405160405180910390a35050565b828054600181600116156101000203166002900490600052602060002090601f016020900481019282601f106200036a57805160ff19168380011785556200039b565b828001600101855582156200039b579182015b828111156200039a5782518255916020019190600101906200037d565b5b509050620003aa9190620003ae565b5090565b620003d391905b80821115620003cf576000816000905550600101620003b5565b5090565b90565b613a3580620003e66000396000f3fe60806040526004361061025c5760003560e01c8063715018a611610144578063c87b56dd116100b6578063e3e1047a1161007a578063e3e1047a14611231578063e927fc5c1461125c578063e985e9c5146112b3578063ec034bed1461133c578063ee085a3b14611393578063f2fde38b146113be5761025c565b8063c87b56dd14610f64578063c99ea22414611018578063d1e8f8f5146110f3578063d2cd89031461111e578063e284952b146112065761025c565b80639debb7c4116101085780639debb7c414610cba5780639f1fc68a14610cc4578063a22cb46514610d9f578063aababba914610dfc578063b5d9840514610e27578063b88d4fde14610e525761025c565b8063715018a614610ab6578063776c834114610acd5780637df2263514610af85780638da5cb5b14610bd357806395d89b4114610c2a5761025c565b8063325bfc05116101dd5780634d62d7b1116101a15780634d62d7b1146109065780634f6ccce71461093157806353754cd01461098057806359a7715a146109ab5780636352211e146109d657806370a0823114610a515761025c565b8063325bfc05146107df5780633a86ba3a1461080a57806342842e0e1461083557806345b458d1146108b05780634bc4de3f146108db5761025c565b8063099f0ab511610224578063099f0ab5146105145780630cc8cb3a146105ef57806318160ddd146106ca57806323b872dd146106f55780632f745c59146107705761025c565b806301ffc9a71461026157806306fdde03146102d3578063076ba7fd14610363578063081812fc1461043e578063095ea7b3146104b9575b600080fd5b34801561026d57600080fd5b506102b96004803603602081101561028457600080fd5b8101908080357bffffffffffffffffffffffffffffffffffffffffffffffffffffffff1916906020019092919050505061140f565b604051808215151515815260200191505060405180910390f35b3480156102df57600080fd5b506102e8611476565b6040518080602001828103825283818151815260200191508051906020019080838360005b8381101561032857808201518184015260208101905061030d565b50505050905090810190601f1680156103555780820380516001836020036101000a031916815260200191505b509250505060405180910390f35b61043c6004803603604081101561037957600080fd5b81019080803573ffffffffffffffffffffffffffffffffffffffff169060200190929190803590602001906401000000008111156103b657600080fd5b8201836020820111156103c857600080fd5b803590602001918460018302840111640100000000831117156103ea57600080fd5b91908080601f016020809104026020016040519081016040528093929190818152602001838380828437600081840152601f19601f820116905080830192505050505050509192919290505050611518565b005b34801561044a57600080fd5b506104776004803603602081101561046157600080fd5b8101908080359060200190929190505050611564565b604051808273ffffffffffffffffffffffffffffffffffffffff1673ffffffffffffffffffffffffffffffffffffffff16815260200191505060405180910390f35b3480156104c557600080fd5b50610512600480360360408110156104dc57600080fd5b81019080803573ffffffffffffffffffffffffffffffffffffffff169060200190929190803590602001909291905050506115ff565b005b6105ed6004803603604081101561052a57600080fd5b81019080803573ffffffffffffffffffffffffffffffffffffffff1690602001909291908035906020019064010000000081111561056757600080fd5b82018360208201111561057957600080fd5b8035906020019184600183028401116401000000008311171561059b57600080fd5b91908080601f016020809104026020016040519081016040528093929190818152602001838380828437600081840152601f19601f8201169050808301925050505050505091929192905050506117d8565b005b6106c86004803603604081101561060557600080fd5b81019080803573ffffffffffffffffffffffffffffffffffffffff1690602001909291908035906020019064010000000081111561064257600080fd5b82018360208201111561065457600080fd5b8035906020019184600183028401116401000000008311171561067657600080fd5b91908080601f016020809104026020016040519081016040528093929190818152602001838380828437600081840152601f19601f820116905080830192505050505050509192919290505050611873565b005b3480156106d657600080fd5b506106df6118ec565b6040518082815260200191505060405180910390f35b34801561070157600080fd5b5061076e6004803603606081101561071857600080fd5b81019080803573ffffffffffffffffffffffffffffffffffffffff169060200190929190803573ffffffffffffffffffffffffffffffffffffffff169060200190929190803590602001909291905050506118f9565b005b34801561077c57600080fd5b506107c96004803603604081101561079357600080fd5b81019080803573ffffffffffffffffffffffffffffffffffffffff16906020019092919080359060200190929190505050611968565b6040518082815260200191505060405180910390f35b3480156107eb57600080fd5b506107f4611a27565b6040518082815260200191505060405180910390f35b34801561081657600080fd5b5061081f611a2c565b6040518082815260200191505060405180910390f35b34801561084157600080fd5b506108ae6004803603606081101561085857600080fd5b81019080803573ffffffffffffffffffffffffffffffffffffffff169060200190929190803573ffffffffffffffffffffffffffffffffffffffff16906020019092919080359060200190929190505050611a38565b005b3480156108bc57600080fd5b506108c5611a58565b6040518082815260200191505060405180910390f35b3480156108e757600080fd5b506108f0611a5e565b6040518082815260200191505060405180910390f35b34801561091257600080fd5b5061091b611a69565b6040518082815260200191505060405180910390f35b34801561093d57600080fd5b5061096a6004803603602081101561095457600080fd5b8101908080359060200190929190505050611a6f565b6040518082815260200191505060405180910390f35b34801561098c57600080fd5b50610995611aef565b6040518082815260200191505060405180910390f35b3480156109b757600080fd5b506109c0611af5565b6040518082815260200191505060405180910390f35b3480156109e257600080fd5b50610a0f600480360360208110156109f957600080fd5b8101908080359060200190929190505050611b04565b604051808273ffffffffffffffffffffffffffffffffffffffff1673ffffffffffffffffffffffffffffffffffffffff16815260200191505060405180910390f35b348015610a5d57600080fd5b50610aa060048036036020811015610a7457600080fd5b81019080803573ffffffffffffffffffffffffffffffffffffffff169060200190929190505050611bcc565b6040518082815260200191505060405180910390f35b348015610ac257600080fd5b50610acb611ca1565b005b348015610ad957600080fd5b50610ae2611d5c565b6040518082815260200191505060405180910390f35b610bd160048036036040811015610b0e57600080fd5b81019080803573ffffffffffffffffffffffffffffffffffffffff16906020019092919080359060200190640100000000811115610b4b57600080fd5b820183602082011115610b5d57600080fd5b80359060200191846001830284011164010000000083111715610b7f57600080fd5b91908080601f016020809104026020016040519081016040528093929190818152602001838380828437600081840152601f19601f820116905080830192505050505050509192919290505050611d62565b005b348015610bdf57600080fd5b50610be8611dfd565b604051808273ffffffffffffffffffffffffffffffffffffffff1673ffffffffffffffffffffffffffffffffffffffff16815260200191505060405180910390f35b348015610c3657600080fd5b50610c3f611e27565b6040518080602001828103825283818151815260200191508051906020019080838360005b83811015610c7f578082015181840152602081019050610c64565b50505050905090810190601f168015610cac5780820380516001836020036101000a031916815260200191505b509250505060405180910390f35b610cc2611ec9565b005b610d9d60048036036040811015610cda57600080fd5b81019080803573ffffffffffffffffffffffffffffffffffffffff16906020019092919080359060200190640100000000811115610d1757600080fd5b820183602082011115610d2957600080fd5b80359060200191846001830284011164010000000083111715610d4b57600080fd5b91908080601f016020809104026020016040519081016040528093929190818152602001838380828437600081840152601f19601f820116905080830192505050505050509192919290505050612069565b005b348015610dab57600080fd5b50610dfa60048036036040811015610dc257600080fd5b81019080803573ffffffffffffffffffffffffffffffffffffffff169060200190929190803515159060200190929190505050612103565b005b348015610e0857600080fd5b50610e116122a6565b6040518082815260200191505060405180910390f35b348015610e3357600080fd5b50610e3c6122ac565b6040518082815260200191505060405180910390f35b348015610e5e57600080fd5b50610f6260048036036080811015610e7557600080fd5b81019080803573ffffffffffffffffffffffffffffffffffffffff169060200190929190803573ffffffffffffffffffffffffffffffffffffffff1690602001909291908035906020019092919080359060200190640100000000811115610edc57600080fd5b820183602082011115610eee57600080fd5b80359060200191846001830284011164010000000083111715610f1057600080fd5b91908080601f016020809104026020016040519081016040528093929190818152602001838380828437600081840152601f19601f8201169050808301925050505050505091929192905050506122b7565b005b348015610f7057600080fd5b50610f9d60048036036020811015610f8757600080fd5b8101908080359060200190929190505050612329565b6040518080602001828103825283818151815260200191508051906020019080838360005b83811015610fdd578082015181840152602081019050610fc2565b50505050905090810190601f16801561100a5780820380516001836020036101000a031916815260200191505b509250505060405180910390f35b6110f16004803603604081101561102e57600080fd5b81019080803573ffffffffffffffffffffffffffffffffffffffff1690602001909291908035906020019064010000000081111561106b57600080fd5b82018360208201111561107d57600080fd5b8035906020019184600183028401116401000000008311171561109f57600080fd5b91908080601f016020809104026020016040519081016040528093929190818152602001838380828437600081840152601f19601f82011690508083019250505050505050919291929050505061243c565b005b3480156110ff57600080fd5b506111086124d7565b6040518082815260200191505060405180910390f35b34801561112a57600080fd5b506112046004803603604081101561114157600080fd5b81019080803573ffffffffffffffffffffffffffffffffffffffff1690602001909291908035906020019064010000000081111561117e57600080fd5b82018360208201111561119057600080fd5b803590602001918460018302840111640100000000831117156111b257600080fd5b91908080601f016020809104026020016040519081016040528093929190818152602001838380828437600081840152601f19601f8201169050808301925050505050505091929192905050506124dc565b005b34801561121257600080fd5b5061121b612514565b6040518082815260200191505060405180910390f35b34801561123d57600080fd5b5061124661251a565b6040518082815260200191505060405180910390f35b34801561126857600080fd5b50611271612524565b604051808273ffffffffffffffffffffffffffffffffffffffff1673ffffffffffffffffffffffffffffffffffffffff16815260200191505060405180910390f35b3480156112bf57600080fd5b50611322600480360360408110156112d657600080fd5b81019080803573ffffffffffffffffffffffffffffffffffffffff169060200190929190803573ffffffffffffffffffffffffffffffffffffffff16906020019092919050505061253c565b604051808215151515815260200191505060405180910390f35b34801561134857600080fd5b506113516125d0565b604051808273ffffffffffffffffffffffffffffffffffffffff1673ffffffffffffffffffffffffffffffffffffffff16815260200191505060405180910390f35b34801561139f57600080fd5b506113a86125e8565b6040518082815260200191505060405180910390f35b3480156113ca57600080fd5b5061140d600480360360208110156113e157600080fd5b81019080803573ffffffffffffffffffffffffffffffffffffffff1690602001909291905050506125f3565b005b6000806000837bffffffffffffffffffffffffffffffffffffffffffffffffffffffff19167bffffffffffffffffffffffffffffffffffffffffffffffffffffffff1916815260200190815260200160002060009054906101000a900460ff169050919050565b606060098054600181600116156101000203166002900480601f01602080910402602001604051908101604052809291908181526020018280546001816001161561010002031660029004801561150e5780601f106114e35761010080835404028352916020019161150e565b820191906000526020600020905b8154815290600101906020018083116114f157829003601f168201915b5050505050905090565b66038d7ea4c6800034101561152c57600080fd5b6000611549600161153b6118ec565b61273490919063ffffffff16565b905061155583826127bc565b61155f81836127dd565b505050565b600061156f82612867565b6115c4576040517f08c379a000000000000000000000000000000000000000000000000000000000815260040180806020018281038252602c8152602001806138d3602c913960400191505060405180910390fd5b6002600083815260200190815260200160002060009054906101000a900473ffffffffffffffffffffffffffffffffffffffff169050919050565b600061160a82611b04565b90508073ffffffffffffffffffffffffffffffffffffffff168373ffffffffffffffffffffffffffffffffffffffff161415611691576040517f08c379a00000000000000000000000000000000000000000000000000000000081526004018080602001828103825260218152602001806139836021913960400191505060405180910390fd5b8073ffffffffffffffffffffffffffffffffffffffff163373ffffffffffffffffffffffffffffffffffffffff1614806116d157506116d0813361253c565b5b611726576040517f08c379a00000000000000000000000000000000000000000000000000000000081526004018080602001828103825260388152602001806138276038913960400191505060405180910390fd5b826002600084815260200190815260200160002060006101000a81548173ffffffffffffffffffffffffffffffffffffffff021916908373ffffffffffffffffffffffffffffffffffffffff160217905550818373ffffffffffffffffffffffffffffffffffffffff168273ffffffffffffffffffffffffffffffffffffffff167f8c5be1e5ebec7d5bd14f71427d1e84f3dd0314c0f7b2291e5b200ac8c7c3b92560405160405180910390a4505050565b66470de4df8200003410156117ec57600080fd5b610104600f54106117fc57600080fd5b6000611819600161180b6118ec565b61273490919063ffffffff16565b905061182583826127bc565b61182f81836127dd565b600f60008154809291906001019190505550807fd843844154a85aa332fdf968122c937c95893ad39ad83aa9d66bcf4ebe46d77360405160405180910390a2505050565b66038d7ea4c6800034101561188757600080fd5b60006118a460016118966118ec565b61273490919063ffffffff16565b90506118b083826127bc565b6118ba81836127dd565b807fd843844154a85aa332fdf968122c937c95893ad39ad83aa9d66bcf4ebe46d77360405160405180910390a2505050565b6000600780549050905090565b61190333826128d9565b611958576040517f08c379a00000000000000000000000000000000000000000000000000000000081526004018080602001828103825260318152602001806139a46031913960400191505060405180910390fd5b6119638383836129cd565b505050565b600061197383611bcc565b82106119ca576040517f08c379a000000000000000000000000000000000000000000000000000000000815260040180806020018281038252602b815260200180613754602b913960400191505060405180910390fd5b600560008473ffffffffffffffffffffffffffffffffffffffff1673ffffffffffffffffffffffffffffffffffffffff1681526020019081526020016000208281548110611a1457fe5b9060005260206000200154905092915050565b602d81565b67016345785d8a000081565b611a53838383604051806020016040528060008152506122b7565b505050565b600f5481565b66470de4df82000081565b60105481565b6000611a796118ec565b8210611ad0576040517f08c379a000000000000000000000000000000000000000000000000000000000815260040180806020018281038252602c8152602001806139d5602c913960400191505060405180910390fd5b60078281548110611add57fe5b90600052602060002001549050919050565b600d5481565b6000611aff6118ec565b905090565b6000806001600084815260200190815260200160002060009054906101000a900473ffffffffffffffffffffffffffffffffffffffff169050600073ffffffffffffffffffffffffffffffffffffffff168173ffffffffffffffffffffffffffffffffffffffff161415611bc3576040517f08c379a00000000000000000000000000000000000000000000000000000000081526004018080602001828103825260298152602001806138896029913960400191505060405180910390fd5b80915050919050565b60008073ffffffffffffffffffffffffffffffffffffffff168273ffffffffffffffffffffffffffffffffffffffff161415611c53576040517f08c379a000000000000000000000000000000000000000000000000000000000815260040180806020018281038252602a81526020018061385f602a913960400191505060405180910390fd5b611c9a600360008473ffffffffffffffffffffffffffffffffffffffff1673ffffffffffffffffffffffffffffffffffffffff1681526020019081526020016000206129f1565b9050919050565b611ca96129ff565b73ffffffffffffffffffffffffffffffffffffffff16611cc7611dfd565b73ffffffffffffffffffffffffffffffffffffffff1614611d50576040517f08c379a00000000000000000000000000000000000000000000000000000000081526004018080602001828103825260208152602001807f4f776e61626c653a2063616c6c6572206973206e6f7420746865206f776e657281525060200191505060405180910390fd5b611d5a6000612a07565b565b61012c81565b67016345785d8a0000341015611d7757600080fd5b6064600d5410611d8657600080fd5b6000611da36001611d956118ec565b61273490919063ffffffff16565b9050611daf83826127bc565b611db981836127dd565b600d60008154809291906001019190505550807f1126b4f1c8211b5de7f8790ad31e9cafcf7486775ca19d8efdd444d1699a367c60405160405180910390a2505050565b6000600c60009054906101000a900473ffffffffffffffffffffffffffffffffffffffff16905090565b6060600a8054600181600116156101000203166002900480601f016020809104026020016040519081016040528092919081815260200182805460018160011615610100020316600290048015611ebf5780601f10611e9457610100808354040283529160200191611ebf565b820191906000526020600020905b815481529060010190602001808311611ea257829003601f168201915b5050505050905090565b611ed16129ff565b73ffffffffffffffffffffffffffffffffffffffff16611eef611dfd565b73ffffffffffffffffffffffffffffffffffffffff1614611f78576040517f08c379a00000000000000000000000000000000000000000000000000000000081526004018080602001828103825260208152602001807f4f776e61626c653a2063616c6c6572206973206e6f7420746865206f776e657281525060200191505060405180910390fd5b600047905060008111611f8a57600080fd5b73f1bce759fc679b573a24fb2c0a1ab62ce34f2af073ffffffffffffffffffffffffffffffffffffffff166108fc611fdf6064611fd1602386612acd90919063ffffffff16565b612b5390919063ffffffff16565b9081150290604051600060405180830381858888f1935050505015801561200a573d6000803e3d6000fd5b5073d2a68f34cfbe1901338999d4508428f7db1b692f73ffffffffffffffffffffffffffffffffffffffff166108fc479081150290604051600060405180830381858888f19350505050158015612065573d6000803e3d6000fd5b5050565b66038d7ea4c6800034101561207d57600080fd5b602d600e541061208c57600080fd5b60006120a9600161209b6118ec565b61273490919063ffffffff16565b90506120b583826127bc565b6120bf81836127dd565b600e60008154809291906001019190505550807f1126b4f1c8211b5de7f8790ad31e9cafcf7486775ca19d8efdd444d1699a367c60405160405180910390a2505050565b3373ffffffffffffffffffffffffffffffffffffffff168273ffffffffffffffffffffffffffffffffffffffff1614156121a5576040517f08c379a00000000000000000000000000000000000000000000000000000000081526004018080602001828103825260198152602001807f4552433732313a20617070726f766520746f2063616c6c65720000000000000081525060200191505060405180910390fd5b80600460003373ffffffffffffffffffffffffffffffffffffffff1673ffffffffffffffffffffffffffffffffffffffff16815260200190815260200160002060008473ffffffffffffffffffffffffffffffffffffffff1673ffffffffffffffffffffffffffffffffffffffff16815260200190815260200160002060006101000a81548160ff0219169083151502179055508173ffffffffffffffffffffffffffffffffffffffff163373ffffffffffffffffffffffffffffffffffffffff167f17307eab39ab6107e8899845ad3d59bd9653f200f220920489ca2b5937696c3183604051808215151515815260200191505060405180910390a35050565b600e5481565b66038d7ea4c6800081565b6122c28484846118f9565b6122ce84848484612be2565b612323576040517f08c379a000000000000000000000000000000000000000000000000000000000815260040180806020018281038252603281526020018061377f6032913960400191505060405180910390fd5b50505050565b606061233482612867565b612389576040517f08c379a000000000000000000000000000000000000000000000000000000000815260040180806020018281038252602f815260200180613954602f913960400191505060405180910390fd5b600b60008381526020019081526020016000208054600181600116156101000203166002900480601f0160208091040260200160405190810160405280929190818152602001828054600181600116156101000203166002900480156124305780601f1061240557610100808354040283529160200191612430565b820191906000526020600020905b81548152906001019060200180831161241357829003601f168201915b50505050509050919050565b66038d7ea4c6800034101561245057600080fd5b61012c6010541061246057600080fd5b600061247d600161246f6118ec565b61273490919063ffffffff16565b905061248983826127bc565b61249381836127dd565b601060008154809291906001019190505550807f44b72543416d762945011aa3d44cba376ccaf27ff73f48f168649535a6401c8760405160405180910390a2505050565b606481565b60006124f960016124eb6118ec565b61273490919063ffffffff16565b905061250583826127bc565b61250f81836127dd565b505050565b61010481565b65017bdcbd520081565b73d2a68f34cfbe1901338999d4508428f7db1b692f81565b6000600460008473ffffffffffffffffffffffffffffffffffffffff1673ffffffffffffffffffffffffffffffffffffffff16815260200190815260200160002060008373ffffffffffffffffffffffffffffffffffffffff1673ffffffffffffffffffffffffffffffffffffffff16815260200190815260200160002060009054906101000a900460ff16905092915050565b73f1bce759fc679b573a24fb2c0a1ab62ce34f2af081565b66038d7ea4c6800081565b6125fb6129ff565b73ffffffffffffffffffffffffffffffffffffffff16612619611dfd565b73ffffffffffffffffffffffffffffffffffffffff16146126a2576040517f08c379a00000000000000000000000000000000000000000000000000000000081526004018080602001828103825260208152602001807f4f776e61626c653a2063616c6c6572206973206e6f7420746865206f776e657281525060200191505060405180910390fd5b600073ffffffffffffffffffffffffffffffffffffffff168173ffffffffffffffffffffffffffffffffffffffff161415612728576040517f08c379a00000000000000000000000000000000000000000000000000000000081526004018080602001828103825260268152602001806137b16026913960400191505060405180910390fd5b61273181612a07565b50565b6000808284019050838110156127b2576040517f08c379a000000000000000000000000000000000000000000000000000000000815260040180806020018281038252601b8152602001807f536166654d6174683a206164646974696f6e206f766572666c6f77000000000081525060200191505060405180910390fd5b8091505092915050565b6127c68282612dcb565b6127d08282612fe3565b6127d9816130aa565b5050565b6127e682612867565b61283b576040517f08c379a000000000000000000000000000000000000000000000000000000000815260040180806020018281038252602c8152602001806138ff602c913960400191505060405180910390fd5b80600b60008481526020019081526020016000209080519060200190612862929190613682565b505050565b6000806001600084815260200190815260200160002060009054906101000a900473ffffffffffffffffffffffffffffffffffffffff169050600073ffffffffffffffffffffffffffffffffffffffff168173ffffffffffffffffffffffffffffffffffffffff161415915050919050565b60006128e482612867565b612939576040517f08c379a000000000000000000000000000000000000000000000000000000000815260040180806020018281038252602c8152602001806137fb602c913960400191505060405180910390fd5b600061294483611b04565b90508073ffffffffffffffffffffffffffffffffffffffff168473ffffffffffffffffffffffffffffffffffffffff1614806129b357508373ffffffffffffffffffffffffffffffffffffffff1661299b84611564565b73ffffffffffffffffffffffffffffffffffffffff16145b806129c457506129c3818561253c565b5b91505092915050565b6129d88383836130f6565b6129e28382613351565b6129ec8282612fe3565b505050565b600081600001549050919050565b600033905090565b6000600c60009054906101000a900473ffffffffffffffffffffffffffffffffffffffff16905081600c60006101000a81548173ffffffffffffffffffffffffffffffffffffffff021916908373ffffffffffffffffffffffffffffffffffffffff1602179055508173ffffffffffffffffffffffffffffffffffffffff168173ffffffffffffffffffffffffffffffffffffffff167f8be0079c531659141344cd1fd0a4f28419497f9722a3daafe3b4186f6b6457e060405160405180910390a35050565b600080831415612ae05760009050612b4d565b6000828402905082848281612af157fe5b0414612b48576040517f08c379a00000000000000000000000000000000000000000000000000000000081526004018080602001828103825260218152602001806138b26021913960400191505060405180910390fd5b809150505b92915050565b6000808211612bca576040517f08c379a000000000000000000000000000000000000000000000000000000000815260040180806020018281038252601a8152602001807f536166654d6174683a206469766973696f6e206279207a65726f00000000000081525060200191505060405180910390fd5b6000828481612bd557fe5b0490508091505092915050565b6000612c038473ffffffffffffffffffffffffffffffffffffffff166134ef565b612c105760019050612dc3565b60008473ffffffffffffffffffffffffffffffffffffffff1663150b7a02338887876040518563ffffffff1660e01b8152600401808573ffffffffffffffffffffffffffffffffffffffff1673ffffffffffffffffffffffffffffffffffffffff1681526020018473ffffffffffffffffffffffffffffffffffffffff1673ffffffffffffffffffffffffffffffffffffffff16815260200183815260200180602001828103825283818151815260200191508051906020019080838360005b83811015612ceb578082015181840152602081019050612cd0565b50505050905090810190601f168015612d185780820380516001836020036101000a031916815260200191505b5095505050505050602060405180830381600087803b158015612d3a57600080fd5b505af1158015612d4e573d6000803e3d6000fd5b505050506040513d6020811015612d6457600080fd5b8101908080519060200190929190505050905063150b7a0260e01b7bffffffffffffffffffffffffffffffffffffffffffffffffffffffff1916817bffffffffffffffffffffffffffffffffffffffffffffffffffffffff1916149150505b949350505050565b600073ffffffffffffffffffffffffffffffffffffffff168273ffffffffffffffffffffffffffffffffffffffff161415612e6e576040517f08c379a00000000000000000000000000000000000000000000000000000000081526004018080602001828103825260208152602001807f4552433732313a206d696e7420746f20746865207a65726f206164647265737381525060200191505060405180910390fd5b612e7781612867565b15612eea576040517f08c379a000000000000000000000000000000000000000000000000000000000815260040180806020018281038252601c8152602001807f4552433732313a20746f6b656e20616c7265616479206d696e7465640000000081525060200191505060405180910390fd5b816001600083815260200190815260200160002060006101000a81548173ffffffffffffffffffffffffffffffffffffffff021916908373ffffffffffffffffffffffffffffffffffffffff160217905550612f83600360008473ffffffffffffffffffffffffffffffffffffffff1673ffffffffffffffffffffffffffffffffffffffff168152602001908152602001600020613502565b808273ffffffffffffffffffffffffffffffffffffffff16600073ffffffffffffffffffffffffffffffffffffffff167fddf252ad1be2c89b69c2b068fc378daa952ba7f163c4a11628f55a4df523b3ef60405160405180910390a45050565b600560008373ffffffffffffffffffffffffffffffffffffffff1673ffffffffffffffffffffffffffffffffffffffff168152602001908152602001600020805490506006600083815260200190815260200160002081905550600560008373ffffffffffffffffffffffffffffffffffffffff1673ffffffffffffffffffffffffffffffffffffffff1681526020019081526020016000208190806001815401808255809150509060018203906000526020600020016000909192909190915055505050565b6007805490506008600083815260200190815260200160002081905550600781908060018154018082558091505090600182039060005260206000200160009091929091909150555050565b8273ffffffffffffffffffffffffffffffffffffffff1661311682611b04565b73ffffffffffffffffffffffffffffffffffffffff1614613182576040517f08c379a000000000000000000000000000000000000000000000000000000000815260040180806020018281038252602981526020018061392b6029913960400191505060405180910390fd5b600073ffffffffffffffffffffffffffffffffffffffff168273ffffffffffffffffffffffffffffffffffffffff161415613208576040517f08c379a00000000000000000000000000000000000000000000000000000000081526004018080602001828103825260248152602001806137d76024913960400191505060405180910390fd5b61321181613518565b613258600360008573ffffffffffffffffffffffffffffffffffffffff1673ffffffffffffffffffffffffffffffffffffffff1681526020019081526020016000206135d6565b61329f600360008473ffffffffffffffffffffffffffffffffffffffff1673ffffffffffffffffffffffffffffffffffffffff168152602001908152602001600020613502565b816001600083815260200190815260200160002060006101000a81548173ffffffffffffffffffffffffffffffffffffffff021916908373ffffffffffffffffffffffffffffffffffffffff160217905550808273ffffffffffffffffffffffffffffffffffffffff168473ffffffffffffffffffffffffffffffffffffffff167fddf252ad1be2c89b69c2b068fc378daa952ba7f163c4a11628f55a4df523b3ef60405160405180910390a4505050565b60006133a96001600560008673ffffffffffffffffffffffffffffffffffffffff1673ffffffffffffffffffffffffffffffffffffffff168152602001908152602001600020805490506135f990919063ffffffff16565b9050600060066000848152602001908152602001600020549050818114613496576000600560008673ffffffffffffffffffffffffffffffffffffffff1673ffffffffffffffffffffffffffffffffffffffff168152602001908152602001600020838154811061341657fe5b9060005260206000200154905080600560008773ffffffffffffffffffffffffffffffffffffffff1673ffffffffffffffffffffffffffffffffffffffff168152602001908152602001600020838154811061346e57fe5b9060005260206000200181905550816006600083815260200190815260200160002081905550505b600560008573ffffffffffffffffffffffffffffffffffffffff1673ffffffffffffffffffffffffffffffffffffffff1681526020019081526020016000208054809190600190036134e89190613702565b5050505050565b600080823b905060008111915050919050565b6001816000016000828254019250508190555050565b600073ffffffffffffffffffffffffffffffffffffffff166002600083815260200190815260200160002060009054906101000a900473ffffffffffffffffffffffffffffffffffffffff1673ffffffffffffffffffffffffffffffffffffffff16146135d35760006002600083815260200190815260200160002060006101000a81548173ffffffffffffffffffffffffffffffffffffffff021916908373ffffffffffffffffffffffffffffffffffffffff1602179055505b50565b6135ee600182600001546135f990919063ffffffff16565b816000018190555050565b600082821115613671576040517f08c379a000000000000000000000000000000000000000000000000000000000815260040180806020018281038252601e8152602001807f536166654d6174683a207375627472616374696f6e206f766572666c6f77000081525060200191505060405180910390fd5b600082840390508091505092915050565b828054600181600116156101000203166002900490600052602060002090601f016020900481019282601f106136c357805160ff19168380011785556136f1565b828001600101855582156136f1579182015b828111156136f05782518255916020019190600101906136d5565b5b5090506136fe919061372e565b5090565b81548183558181111561372957818360005260206000209182019101613728919061372e565b5b505050565b61375091905b8082111561374c576000816000905550600101613734565b5090565b9056fe455243373231456e756d657261626c653a206f776e657220696e646578206f7574206f6620626f756e64734552433732313a207472616e7366657220746f206e6f6e20455243373231526563656976657220696d706c656d656e7465724f776e61626c653a206e6577206f776e657220697320746865207a65726f20616464726573734552433732313a207472616e7366657220746f20746865207a65726f20616464726573734552433732313a206f70657261746f7220717565727920666f72206e6f6e6578697374656e7420746f6b656e4552433732313a20617070726f76652063616c6c6572206973206e6f74206f776e6572206e6f7220617070726f76656420666f7220616c6c4552433732313a2062616c616e636520717565727920666f7220746865207a65726f20616464726573734552433732313a206f776e657220717565727920666f72206e6f6e6578697374656e7420746f6b656e536166654d6174683a206d756c7469706c69636174696f6e206f766572666c6f774552433732313a20617070726f76656420717565727920666f72206e6f6e6578697374656e7420746f6b656e4552433732314d657461646174613a2055524920736574206f66206e6f6e6578697374656e7420746f6b656e4552433732313a207472616e73666572206f6620746f6b656e2074686174206973206e6f74206f776e4552433732314d657461646174613a2055524920717565727920666f72206e6f6e6578697374656e7420746f6b656e4552433732313a20617070726f76616c20746f2063757272656e74206f776e65724552433732313a207472616e736665722063616c6c6572206973206e6f74206f776e6572206e6f7220617070726f766564455243373231456e756d657261626c653a20676c6f62616c20696e646578206f7574206f6620626f756e6473a265627a7a72315820aad13d96c5f80bcf24e3cd58d821bc2c1058019806928aea97f3d58027c0578d64736f6c63430005100032",
  "source": "pragma solidity >=0.4.21 <0.6.0;\r\n\r\nimport \"./ERC721Full.sol\";\r\nimport \"./Ownable.sol\";\r\n\r\ncontract CryptoChickens is ERC721Full, Ownable {\r\n  using SafeMath for uint256;\r\n\r\n  uint256 public constant MAX_MEMEPACK = 100;\r\n  uint256 public constant MAX_MEMEBREED = 45;\r\n  uint256 public constant MAX_RAREPACK = 260;\r\n  uint256 public constant MAX_COMMONPACK = 300;\r\n  uint256 public constant reveal_timestamp = 1631496000000;\r\n  uint256 public constant MEMEPRICE = 1 * 10**17;\r\n  uint256 public constant RAREPRICE = 2 * 10**16;\r\n  uint256 public constant COMMONPRICE = 1 * 10**15;\r\n  uint256 public constant BREEDERFEE = 1 * 10**15;\r\n\r\n  address payable public constant creatorAddress = 0xd2A68f34cFbe1901338999D4508428F7DB1B692F;\r\n  address payable public constant donationAddress = 0xF1bCe759Fc679B573A24FB2C0a1AB62ce34f2aF0;\r\n\r\n  uint256 public MEMEPACK = 0;\r\n  uint256 public MEMEBREED = 0;\r\n  uint256 public RAREPACK = 0;\r\n  uint256 public COMMONPACK = 0;\r\n\r\n  event CreateMemeChicken(uint256 indexed id);\r\n  event CreateRareChicken(uint256 indexed id);\r\n  event CreateCommonChicken(uint256 indexed id);\r\n  constructor() ERC721Full(\"CryptoChickens\", \"MEMORY\") public {\r\n  }\r\n\r\n  function totalMint() public view returns (uint256) {\r\n    return totalSupply();\r\n  }\r\n\r\n  function starterMint(address _to, string memory _tokenURI) public {\r\n    uint _tokenId = totalSupply().add(1);\r\n    _mint(_to, _tokenId);\r\n    _setTokenURI(_tokenId, _tokenURI);\r\n  }\r\n\r\n  function mintMemePack(address _to, string memory _tokenURI) public payable {\r\n    require(msg.value >= MEMEPRICE);\r\n    require(MEMEPACK < MAX_MEMEPACK);\r\n    uint _tokenId = totalSupply().add(1);\r\n    _mint(_to, _tokenId);\r\n    _setTokenURI(_tokenId, _tokenURI);\r\n    MEMEPACK++;\r\n    emit CreateMemeChicken(_tokenId);\r\n  }\r\n\r\n  function mintMemeBreed(address _to, string memory _tokenURI) public payable {\r\n    require(msg.value >= BREEDERFEE);\r\n    require(MEMEBREED < MAX_MEMEBREED);\r\n    uint _tokenId = totalSupply().add(1);\r\n    _mint(_to, _tokenId);\r\n    _setTokenURI(_tokenId, _tokenURI);\r\n    MEMEBREED++;\r\n    emit CreateMemeChicken(_tokenId);\r\n  }\r\n\r\n  function mintRarePack(address _to, string memory _tokenURI) public payable {\r\n    require(msg.value >= RAREPRICE);\r\n    require(RAREPACK < MAX_RAREPACK);\r\n    uint _tokenId = totalSupply().add(1);\r\n    _mint(_to, _tokenId);\r\n    _setTokenURI(_tokenId, _tokenURI);\r\n    RAREPACK++;\r\n    emit CreateRareChicken(_tokenId);\r\n  }\r\n\r\n  function mintRareBreed(address _to, string memory _tokenURI) public payable {\r\n    require(msg.value >= BREEDERFEE);\r\n    uint _tokenId = totalSupply().add(1);\r\n    _mint(_to, _tokenId);\r\n    _setTokenURI(_tokenId, _tokenURI);\r\n    emit CreateRareChicken(_tokenId);\r\n  }\r\n\r\n  function mintCommonPack(address _to, string memory _tokenURI) public payable {\r\n    require(msg.value >= COMMONPRICE);\r\n    require(COMMONPACK < MAX_COMMONPACK);\r\n    uint _tokenId = totalSupply().add(1);\r\n    _mint(_to, _tokenId);\r\n    _setTokenURI(_tokenId, _tokenURI);\r\n    COMMONPACK++;\r\n    emit CreateCommonChicken(_tokenId);\r\n  }\r\n\r\n  function generalBreed(address _to, string memory _tokenURI) public payable {\r\n    require(msg.value >= BREEDERFEE);\r\n    uint _tokenId = totalSupply().add(1);\r\n    _mint(_to, _tokenId);\r\n    _setTokenURI(_tokenId, _tokenURI);\r\n  }\r\n\r\n  function withdrawALL() public payable onlyOwner {\r\n    uint256 balance = address(this).balance;\r\n    require(balance > 0);\r\n    donationAddress.transfer(balance.mul(35).div(100));\r\n    creatorAddress.transfer(address(this).balance);\r\n  }\r\n\r\n}\r\n",
  "sourcePath": "C:\\Users\\dhrus\\cryptoChickens\\nft\\src\\contracts\\CryptoChickens.sol",
  "compiler": {
    "name": "solc",
    "version": "0.5.16+commit.9c3226ce.Emscripten.clang"
  },
  "schemaVersion": "3.4.3",
  "updatedAt": "2021-10-28T01:22:33.325Z",
  "networkType": "ethereum",
  "devdoc": {
    "methods": {
      "approve(address,uint256)": {
        "details": "Approves another address to transfer the given token ID The zero address indicates there is no approved address. There can only be one approved address per token at a given time. Can only be called by the token owner or an approved operator.",
        "params": {
          "to": "address to be approved for the given token ID",
          "tokenId": "uint256 ID of the token to be approved"
        }
      },
      "balanceOf(address)": {
        "details": "Gets the balance of the specified address.",
        "params": {
          "owner": "address to query the balance of"
        },
        "return": "uint256 representing the amount owned by the passed address"
      },
      "getApproved(uint256)": {
        "details": "Gets the approved address for a token ID, or zero if no address set Reverts if the token ID does not exist.",
        "params": {
          "tokenId": "uint256 ID of the token to query the approval of"
        },
        "return": "address currently approved for the given token ID"
      },
      "isApprovedForAll(address,address)": {
        "details": "Tells whether an operator is approved by a given owner.",
        "params": {
          "operator": "operator address which you want to query the approval of",
          "owner": "owner address which you want to query the approval of"
        },
        "return": "bool whether the given operator is approved by the given owner"
      },
      "name()": {
        "details": "Gets the token name.",
        "return": "string representing the token name"
      },
      "owner()": {
        "details": "Returns the address of the current owner."
      },
      "ownerOf(uint256)": {
        "details": "Gets the owner of the specified token ID.",
        "params": {
          "tokenId": "uint256 ID of the token to query the owner of"
        },
        "return": "address currently marked as the owner of the given token ID"
      },
      "renounceOwnership()": {
        "details": "Leaves the contract without owner. It will not be possible to call `onlyOwner` functions anymore. Can only be called by the current owner.      * NOTE: Renouncing ownership will leave the contract without an owner, thereby removing any functionality that is only available to the owner."
      },
      "safeTransferFrom(address,address,uint256)": {
        "details": "Safely transfers the ownership of a given token ID to another address If the target address is a contract, it must implement `onERC721Received`, which is called upon a safe transfer, and return the magic value `bytes4(keccak256(\"onERC721Received(address,address,uint256,bytes)\"))`; otherwise, the transfer is reverted. Requires the msg.sender to be the owner, approved, or operator",
        "params": {
          "from": "current owner of the token",
          "to": "address to receive the ownership of the given token ID",
          "tokenId": "uint256 ID of the token to be transferred"
        }
      },
      "safeTransferFrom(address,address,uint256,bytes)": {
        "details": "Safely transfers the ownership of a given token ID to another address If the target address is a contract, it must implement `onERC721Received`, which is called upon a safe transfer, and return the magic value `bytes4(keccak256(\"onERC721Received(address,address,uint256,bytes)\"))`; otherwise, the transfer is reverted. Requires the msg.sender to be the owner, approved, or operator",
        "params": {
          "_data": "bytes data to send along with a safe transfer check",
          "from": "current owner of the token",
          "to": "address to receive the ownership of the given token ID",
          "tokenId": "uint256 ID of the token to be transferred"
        }
      },
      "setApprovalForAll(address,bool)": {
        "details": "Sets or unsets the approval of a given operator An operator is allowed to transfer all tokens of the sender on their behalf.",
        "params": {
          "approved": "representing the status of the approval to be set",
          "to": "operator address to set the approval"
        }
      },
      "supportsInterface(bytes4)": {
        "details": "See `IERC165.supportsInterface`.      * Time complexity O(1), guaranteed to always use less than 30 000 gas."
      },
      "symbol()": {
        "details": "Gets the token symbol.",
        "return": "string representing the token symbol"
      },
      "tokenByIndex(uint256)": {
        "details": "Gets the token ID at a given index of all the tokens in this contract Reverts if the index is greater or equal to the total number of tokens.",
        "params": {
          "index": "uint256 representing the index to be accessed of the tokens list"
        },
        "return": "uint256 token ID at the given index of the tokens list"
      },
      "tokenOfOwnerByIndex(address,uint256)": {
        "details": "Gets the token ID at a given index of the tokens list of the requested owner.",
        "params": {
          "index": "uint256 representing the index to be accessed of the requested tokens list",
          "owner": "address owning the tokens list to be accessed"
        },
        "return": "uint256 token ID at the given index of the tokens list owned by the requested address"
      },
      "tokenURI(uint256)": {
        "details": "Returns an URI for a given token ID. Throws if the token ID does not exist. May return an empty string.",
        "params": {
          "tokenId": "uint256 ID of the token to query"
        }
      },
      "totalSupply()": {
        "details": "Gets the total amount of tokens stored by the contract.",
        "return": "uint256 representing the total amount of tokens"
      },
      "transferFrom(address,address,uint256)": {
        "details": "Transfers the ownership of a given token ID to another address. Usage of this method is discouraged, use `safeTransferFrom` whenever possible. Requires the msg.sender to be the owner, approved, or operator.",
        "params": {
          "from": "current owner of the token",
          "to": "address to receive the ownership of the given token ID",
          "tokenId": "uint256 ID of the token to be transferred"
        }
      },
      "transferOwnership(address)": {
        "details": "Transfers ownership of the contract to a new account (`newOwner`). Can only be called by the current owner."
      }
    }
  },
  "userdoc": {
    "methods": {}
  }
}